{"abi":[{"type":"constructor","inputs":[{"name":"_callback_sender","type":"address","internalType":"address"},{"name":"_dex","type":"address","internalType":"address"}],"stateMutability":"payable"},{"type":"receive","stateMutability":"payable"},{"type":"function","name":"_executeSwap","inputs":[{"name":"orderId","type":"uint256","internalType":"uint256"}],"outputs":[{"name":"","type":"uint256","internalType":"uint256"}],"stateMutability":"nonpayable"},{"type":"function","name":"cancelTWAPOrder","inputs":[{"name":"orderId","type":"uint256","internalType":"uint256"}],"outputs":[],"stateMutability":"nonpayable"},{"type":"function","name":"coverDebt","inputs":[],"outputs":[],"stateMutability":"nonpayable"},{"type":"function","name":"createTWAPOrder","inputs":[{"name":"tokenIn","type":"address","internalType":"address"},{"name":"tokenOut","type":"address","internalType":"address"},{"name":"totalAmountIn","type":"uint256","internalType":"uint256"},{"name":"maxExecutions","type":"uint256","internalType":"uint256"}],"outputs":[{"name":"orderId","type":"uint256","internalType":"uint256"}],"stateMutability":"nonpayable"},{"type":"function","name":"dex","inputs":[],"outputs":[{"name":"","type":"address","internalType":"contract ISimpleDEX"}],"stateMutability":"view"},{"type":"function","name":"executeTWAPOrder","inputs":[{"name":"","type":"address","internalType":"address"},{"name":"orderId","type":"uint256","internalType":"uint256"}],"outputs":[],"stateMutability":"nonpayable"},{"type":"function","name":"nextOrderId","inputs":[],"outputs":[{"name":"","type":"uint256","internalType":"uint256"}],"stateMutability":"view"},{"type":"function","name":"orders","inputs":[{"name":"","type":"uint256","internalType":"uint256"}],"outputs":[{"name":"user","type":"address","internalType":"address"},{"name":"tokenIn","type":"address","internalType":"address"},{"name":"tokenOut","type":"address","internalType":"address"},{"name":"totalAmountIn","type":"uint256","internalType":"uint256"},{"name":"amountPerExecution","type":"uint256","internalType":"uint256"},{"name":"executedAmount","type":"uint256","internalType":"uint256"},{"name":"executionCount","type":"uint256","internalType":"uint256"},{"name":"maxExecutions","type":"uint256","internalType":"uint256"},{"name":"isActive","type":"bool","internalType":"bool"}],"stateMutability":"view"},{"type":"function","name":"pay","inputs":[{"name":"amount","type":"uint256","internalType":"uint256"}],"outputs":[],"stateMutability":"nonpayable"},{"type":"event","name":"TWAPOrderCompleted","inputs":[{"name":"orderId","type":"uint256","indexed":true,"internalType":"uint256"},{"name":"user","type":"address","indexed":true,"internalType":"address"}],"anonymous":false},{"type":"event","name":"TWAPOrderCreated","inputs":[{"name":"orderId","type":"uint256","indexed":true,"internalType":"uint256"},{"name":"user","type":"address","indexed":true,"internalType":"address"},{"name":"tokenIn","type":"address","indexed":false,"internalType":"address"},{"name":"tokenOut","type":"address","indexed":false,"internalType":"address"},{"name":"totalAmount","type":"uint256","indexed":false,"internalType":"uint256"},{"name":"amountPerExecution","type":"uint256","indexed":false,"internalType":"uint256"},{"name":"maxExecutions","type":"uint256","indexed":false,"internalType":"uint256"}],"anonymous":false},{"type":"event","name":"TWAPOrderExecuted","inputs":[{"name":"orderId","type":"uint256","indexed":true,"internalType":"uint256"},{"name":"user","type":"address","indexed":true,"internalType":"address"},{"name":"amountIn","type":"uint256","indexed":false,"internalType":"uint256"},{"name":"amountOut","type":"uint256","indexed":false,"internalType":"uint256"},{"name":"executionNumber","type":"uint256","indexed":false,"internalType":"uint256"}],"anonymous":false},{"type":"event","name":"TWAPOrderFailed","inputs":[{"name":"orderId","type":"uint256","indexed":true,"internalType":"uint256"},{"name":"user","type":"address","indexed":true,"internalType":"address"},{"name":"reason","type":"string","indexed":false,"internalType":"string"}],"anonymous":false}],"bytecode":{"object":"0x608060405260405161237a38038061237a833981810160405281019061002591906101b9565b813360025f6101000a81548173ffffffffffffffffffffffffffffffffffffffff021916908373ffffffffffffffffffffffffffffffffffffffff160217905550805f5f6101000a81548173ffffffffffffffffffffffffffffffffffffffff021916908373ffffffffffffffffffffffffffffffffffffffff1602179055506100b48161010460201b60201c565b508060035f6101000a81548173ffffffffffffffffffffffffffffffffffffffff021916908373ffffffffffffffffffffffffffffffffffffffff160217905550600160048190555050506101f7565b6001805f8373ffffffffffffffffffffffffffffffffffffffff1673ffffffffffffffffffffffffffffffffffffffff1681526020019081526020015f205f6101000a81548160ff02191690831515021790555050565b5f5ffd5b5f73ffffffffffffffffffffffffffffffffffffffff82169050919050565b5f6101888261015f565b9050919050565b6101988161017e565b81146101a2575f5ffd5b50565b5f815190506101b38161018f565b92915050565b5f5f604083850312156101cf576101ce61015b565b5b5f6101dc858286016101a5565b92505060206101ed858286016101a5565b9150509250929050565b612176806102045f395ff3fe608060405260043610610089575f3560e01c8063692058c211610058578063692058c21461015e5780637a90b99014610188578063a85c38ef1461019e578063c12d2f55146101e2578063c290d6911461020a57610090565b80631fea85631461009457806324a8d0b1146100bc5780632a58b330146100f85780634d4d65141461012257610090565b3661009057005b5f5ffd5b34801561009f575f5ffd5b506100ba60048036038101906100b59190611541565b610232565b005b3480156100c7575f5ffd5b506100e260048036038101906100dd919061157f565b61083b565b6040516100ef91906115f2565b60405180910390f35b348015610103575f5ffd5b5061010c610bcd565b60405161011991906115f2565b60405180910390f35b34801561012d575f5ffd5b506101486004803603810190610143919061160b565b610bd3565b60405161015591906115f2565b60405180910390f35b348015610169575f5ffd5b50610172610ed0565b60405161017f9190611691565b60405180910390f35b348015610193575f5ffd5b5061019c610ef5565b005b3480156101a9575f5ffd5b506101c460048036038101906101bf919061160b565b610fbd565b6040516101d9999897969594939291906116d3565b60405180910390f35b3480156101ed575f5ffd5b506102086004803603810190610203919061160b565b611070565b005b348015610215575f5ffd5b50610230600480360381019061022b919061160b565b6112ca565b005b60015f3373ffffffffffffffffffffffffffffffffffffffff1673ffffffffffffffffffffffffffffffffffffffff1681526020019081526020015f205f9054906101000a900460ff166102bb576040517f08c379a00000000000000000000000000000000000000000000000000000000081526004016102b2906117b8565b60405180910390fd5b5f60055f8381526020019081526020015f209050806008015f9054906101000a900460ff1661031f576040517f08c379a000000000000000000000000000000000000000000000000000000000815260040161031690611820565b60405180910390fd5b8060070154816006015410610369576040517f08c379a000000000000000000000000000000000000000000000000000000000815260040161036090611888565b60405180910390fd5b3073ffffffffffffffffffffffffffffffffffffffff16634d4d6514836040518263ffffffff1660e01b81526004016103a291906115f2565b6020604051808303815f875af19250505080156103dd57506040513d601f19601f820116820180604052508101906103da91906118ba565b60015b6106f0576103e96118f1565b806308c379a00361057c57506103fd61197e565b80610408575061057e565b5f826008015f6101000a81548160ff0219169083151502179055505f826005015483600301546104389190611a3a565b90505f81111561050457826001015f9054906101000a900473ffffffffffffffffffffffffffffffffffffffff1673ffffffffffffffffffffffffffffffffffffffff1663a9059cbb845f015f9054906101000a900473ffffffffffffffffffffffffffffffffffffffff16836040518363ffffffff1660e01b81526004016104c2929190611a6d565b6020604051808303815f875af11580156104de573d5f5f3e3d5ffd5b505050506040513d601f19601f820116820180604052508101906105029190611abe565b505b825f015f9054906101000a900473ffffffffffffffffffffffffffffffffffffffff1673ffffffffffffffffffffffffffffffffffffffff16847ff2af3527ff84738fc93c9f0422e506486f8bae69e5a5a9b245b04a54b04924028460405161056d9190611b39565b60405180910390a350506106eb565b505b5f816008015f6101000a81548160ff0219169083151502179055505f816005015482600301546105ae9190611a3a565b90505f81111561067a57816001015f9054906101000a900473ffffffffffffffffffffffffffffffffffffffff1673ffffffffffffffffffffffffffffffffffffffff1663a9059cbb835f015f9054906101000a900473ffffffffffffffffffffffffffffffffffffffff16836040518363ffffffff1660e01b8152600401610638929190611a6d565b6020604051808303815f875af1158015610654573d5f5f3e3d5ffd5b505050506040513d601f19601f820116820180604052508101906106789190611abe565b505b815f015f9054906101000a900473ffffffffffffffffffffffffffffffffffffffff1673ffffffffffffffffffffffffffffffffffffffff16837ff2af3527ff84738fc93c9f0422e506486f8bae69e5a5a9b245b04a54b04924026040516106e190611ba3565b60405180910390a3505b610836565b8160040154826005015f8282546107079190611bc1565b92505081905550816006015f81548092919061072290611bf4565b9190505550815f015f9054906101000a900473ffffffffffffffffffffffffffffffffffffffff1673ffffffffffffffffffffffffffffffffffffffff16837fbf1678f63592cf78697cd879276fdf3025d241a4144d5d7750cb82ace684df00846004015484866006015460405161079c93929190611c3b565b60405180910390a38160070154826006015410610834575f826008015f6101000a81548160ff021916908315150217905550815f015f9054906101000a900473ffffffffffffffffffffffffffffffffffffffff1673ffffffffffffffffffffffffffffffffffffffff16837e9dd495421195eba11b580b9afa14d538b352941c8a9626a2a529f3066294e160405160405180910390a35b505b505050565b5f5f831161087e576040517f08c379a000000000000000000000000000000000000000000000000000000000815260040161087590611ce0565b60405180910390fd5b5f82116108c0576040517f08c379a00000000000000000000000000000000000000000000000000000000081526004016108b790611d6e565b60405180910390fd5b5f82846108cd9190611db9565b1461090d576040517f08c379a000000000000000000000000000000000000000000000000000000000815260040161090490611e59565b60405180910390fd5b5f828461091a9190611e77565b90508573ffffffffffffffffffffffffffffffffffffffff166323b872dd3330876040518463ffffffff1660e01b815260040161095993929190611ea7565b6020604051808303815f875af1158015610975573d5f5f3e3d5ffd5b505050506040513d601f19601f820116820180604052508101906109999190611abe565b5060045f8154809291906109ac90611bf4565b9190505591506040518061012001604052803373ffffffffffffffffffffffffffffffffffffffff1681526020018773ffffffffffffffffffffffffffffffffffffffff1681526020018673ffffffffffffffffffffffffffffffffffffffff1681526020018581526020018281526020015f81526020015f81526020018481526020016001151581525060055f8481526020019081526020015f205f820151815f015f6101000a81548173ffffffffffffffffffffffffffffffffffffffff021916908373ffffffffffffffffffffffffffffffffffffffff1602179055506020820151816001015f6101000a81548173ffffffffffffffffffffffffffffffffffffffff021916908373ffffffffffffffffffffffffffffffffffffffff1602179055506040820151816002015f6101000a81548173ffffffffffffffffffffffffffffffffffffffff021916908373ffffffffffffffffffffffffffffffffffffffff160217905550606082015181600301556080820151816004015560a0820151816005015560c0820151816006015560e08201518160070155610100820151816008015f6101000a81548160ff0219169083151502179055509050503373ffffffffffffffffffffffffffffffffffffffff16827f53303b31120d959896bf76c1b766cd84be1d6bb5892e626976afbb615196ca6f8888888689604051610bbc959493929190611edc565b60405180910390a350949350505050565b60045481565b5f3073ffffffffffffffffffffffffffffffffffffffff163373ffffffffffffffffffffffffffffffffffffffff1614610c42576040517f08c379a0000000000000000000000000000000000000000000000000000000008152600401610c3990611f77565b60405180910390fd5b5f60055f8481526020019081526020015f209050806001015f9054906101000a900473ffffffffffffffffffffffffffffffffffffffff1673ffffffffffffffffffffffffffffffffffffffff1663095ea7b360035f9054906101000a900473ffffffffffffffffffffffffffffffffffffffff1683600401546040518363ffffffff1660e01b8152600401610cd9929190611a6d565b6020604051808303815f875af1158015610cf5573d5f5f3e3d5ffd5b505050506040513d601f19601f82011682018060405250810190610d199190611abe565b505f60035f9054906101000a900473ffffffffffffffffffffffffffffffffffffffff1673ffffffffffffffffffffffffffffffffffffffff1663ec6cc0cc836001015f9054906101000a900473ffffffffffffffffffffffffffffffffffffffff16846002015f9054906101000a900473ffffffffffffffffffffffffffffffffffffffff1685600401546040518463ffffffff1660e01b8152600401610dc393929190611ea7565b6020604051808303815f875af1158015610ddf573d5f5f3e3d5ffd5b505050506040513d601f19601f82011682018060405250810190610e0391906118ba565b9050816002015f9054906101000a900473ffffffffffffffffffffffffffffffffffffffff1673ffffffffffffffffffffffffffffffffffffffff1663a9059cbb835f015f9054906101000a900473ffffffffffffffffffffffffffffffffffffffff16836040518363ffffffff1660e01b8152600401610e85929190611a6d565b6020604051808303815f875af1158015610ea1573d5f5f3e3d5ffd5b505050506040513d601f19601f82011682018060405250810190610ec59190611abe565b508092505050919050565b60035f9054906101000a900473ffffffffffffffffffffffffffffffffffffffff1681565b5f5f5f9054906101000a900473ffffffffffffffffffffffffffffffffffffffff1673ffffffffffffffffffffffffffffffffffffffff16639b6c56ec306040518263ffffffff1660e01b8152600401610f4f9190611f95565b602060405180830381865afa158015610f6a573d5f5f3e3d5ffd5b505050506040513d601f19601f82011682018060405250810190610f8e91906118ba565b9050610fba5f5f9054906101000a900473ffffffffffffffffffffffffffffffffffffffff1682611360565b50565b6005602052805f5260405f205f91509050805f015f9054906101000a900473ffffffffffffffffffffffffffffffffffffffff1690806001015f9054906101000a900473ffffffffffffffffffffffffffffffffffffffff1690806002015f9054906101000a900473ffffffffffffffffffffffffffffffffffffffff1690806003015490806004015490806005015490806006015490806007015490806008015f9054906101000a900460ff16905089565b5f60055f8381526020019081526020015f2090503373ffffffffffffffffffffffffffffffffffffffff16815f015f9054906101000a900473ffffffffffffffffffffffffffffffffffffffff1673ffffffffffffffffffffffffffffffffffffffff1614611114576040517f08c379a000000000000000000000000000000000000000000000000000000000815260040161110b90611ff8565b60405180910390fd5b806008015f9054906101000a900460ff16611164576040517f08c379a000000000000000000000000000000000000000000000000000000000815260040161115b90611820565b60405180910390fd5b5f816008015f6101000a81548160ff0219169083151502179055505f816005015482600301546111949190611a3a565b90505f81111561126057816001015f9054906101000a900473ffffffffffffffffffffffffffffffffffffffff1673ffffffffffffffffffffffffffffffffffffffff1663a9059cbb835f015f9054906101000a900473ffffffffffffffffffffffffffffffffffffffff16836040518363ffffffff1660e01b815260040161121e929190611a6d565b6020604051808303815f875af115801561123a573d5f5f3e3d5ffd5b505050506040513d601f19601f8201168201806040525081019061125e9190611abe565b505b815f015f9054906101000a900473ffffffffffffffffffffffffffffffffffffffff1673ffffffffffffffffffffffffffffffffffffffff16837e9dd495421195eba11b580b9afa14d538b352941c8a9626a2a529f3066294e160405160405180910390a3505050565b60015f3373ffffffffffffffffffffffffffffffffffffffff1673ffffffffffffffffffffffffffffffffffffffff1681526020019081526020015f205f9054906101000a900460ff16611353576040517f08c379a000000000000000000000000000000000000000000000000000000000815260040161134a906117b8565b60405180910390fd5b61135d3382611360565b50565b804710156113a3576040517f08c379a000000000000000000000000000000000000000000000000000000000815260040161139a90612060565b60405180910390fd5b5f8111156114a3575f8273ffffffffffffffffffffffffffffffffffffffff16825f67ffffffffffffffff8111156113de576113dd611920565b5b6040519080825280601f01601f1916602001820160405280156114105781602001600182028036833780820191505090505b5060405161141e91906120c2565b5f6040518083038185875af1925050503d805f8114611458576040519150601f19603f3d011682016040523d82523d5f602084013e61145d565b606091505b50509050806114a1576040517f08c379a000000000000000000000000000000000000000000000000000000000815260040161149890612122565b60405180910390fd5b505b5050565b5f604051905090565b5f5ffd5b5f73ffffffffffffffffffffffffffffffffffffffff82169050919050565b5f6114dd826114b4565b9050919050565b6114ed816114d3565b81146114f7575f5ffd5b50565b5f81359050611508816114e4565b92915050565b5f819050919050565b6115208161150e565b811461152a575f5ffd5b50565b5f8135905061153b81611517565b92915050565b5f5f60408385031215611557576115566114b0565b5b5f611564858286016114fa565b92505060206115758582860161152d565b9150509250929050565b5f5f5f5f60808587031215611597576115966114b0565b5b5f6115a4878288016114fa565b94505060206115b5878288016114fa565b93505060406115c68782880161152d565b92505060606115d78782880161152d565b91505092959194509250565b6115ec8161150e565b82525050565b5f6020820190506116055f8301846115e3565b92915050565b5f602082840312156116205761161f6114b0565b5b5f61162d8482850161152d565b91505092915050565b5f819050919050565b5f61165961165461164f846114b4565b611636565b6114b4565b9050919050565b5f61166a8261163f565b9050919050565b5f61167b82611660565b9050919050565b61168b81611671565b82525050565b5f6020820190506116a45f830184611682565b92915050565b6116b3816114d3565b82525050565b5f8115159050919050565b6116cd816116b9565b82525050565b5f610120820190506116e75f83018c6116aa565b6116f4602083018b6116aa565b611701604083018a6116aa565b61170e60608301896115e3565b61171b60808301886115e3565b61172860a08301876115e3565b61173560c08301866115e3565b61174260e08301856115e3565b6117506101008301846116c4565b9a9950505050505050505050565b5f82825260208201905092915050565b7f417574686f72697a65642073656e646572206f6e6c79000000000000000000005f82015250565b5f6117a260168361175e565b91506117ad8261176e565b602082019050919050565b5f6020820190508181035f8301526117cf81611796565b9050919050565b7f4f72646572206973206e6f7420616374697665000000000000000000000000005f82015250565b5f61180a60138361175e565b9150611815826117d6565b602082019050919050565b5f6020820190508181035f830152611837816117fe565b9050919050565b7f4f7264657220616c726561647920636f6d706c657465640000000000000000005f82015250565b5f61187260178361175e565b915061187d8261183e565b602082019050919050565b5f6020820190508181035f83015261189f81611866565b9050919050565b5f815190506118b481611517565b92915050565b5f602082840312156118cf576118ce6114b0565b5b5f6118dc848285016118a6565b91505092915050565b5f8160e01c9050919050565b5f60033d111561190d5760045f5f3e61190a5f516118e5565b90505b90565b5f601f19601f8301169050919050565b7f4e487b71000000000000000000000000000000000000000000000000000000005f52604160045260245ffd5b61195682611910565b810181811067ffffffffffffffff8211171561197557611974611920565b5b80604052505050565b5f60443d10611a0a5761198f6114a7565b60043d036004823e80513d602482011167ffffffffffffffff821117156119b7575050611a0a565b808201805167ffffffffffffffff8111156119d55750505050611a0a565b80602083010160043d0385018111156119f2575050505050611a0a565b611a018260200185018661194d565b82955050505050505b90565b7f4e487b71000000000000000000000000000000000000000000000000000000005f52601160045260245ffd5b5f611a448261150e565b9150611a4f8361150e565b9250828203905081811115611a6757611a66611a0d565b5b92915050565b5f604082019050611a805f8301856116aa565b611a8d60208301846115e3565b9392505050565b611a9d816116b9565b8114611aa7575f5ffd5b50565b5f81519050611ab881611a94565b92915050565b5f60208284031215611ad357611ad26114b0565b5b5f611ae084828501611aaa565b91505092915050565b5f81519050919050565b8281835e5f83830152505050565b5f611b0b82611ae9565b611b15818561175e565b9350611b25818560208601611af3565b611b2e81611910565b840191505092915050565b5f6020820190508181035f830152611b518184611b01565b905092915050565b7f556e6b6e6f776e206572726f72000000000000000000000000000000000000005f82015250565b5f611b8d600d8361175e565b9150611b9882611b59565b602082019050919050565b5f6020820190508181035f830152611bba81611b81565b9050919050565b5f611bcb8261150e565b9150611bd68361150e565b9250828201905080821115611bee57611bed611a0d565b5b92915050565b5f611bfe8261150e565b91507fffffffffffffffffffffffffffffffffffffffffffffffffffffffffffffffff8203611c3057611c2f611a0d565b5b600182019050919050565b5f606082019050611c4e5f8301866115e3565b611c5b60208301856115e3565b611c6860408301846115e3565b949350505050565b7f546f74616c20616d6f756e74206d7573742062652067726561746572207468615f8201527f6e20300000000000000000000000000000000000000000000000000000000000602082015250565b5f611cca60238361175e565b9150611cd582611c70565b604082019050919050565b5f6020820190508181035f830152611cf781611cbe565b9050919050565b7f4d617820657865637574696f6e73206d757374206265206772656174657220745f8201527f68616e2030000000000000000000000000000000000000000000000000000000602082015250565b5f611d5860258361175e565b9150611d6382611cfe565b604082019050919050565b5f6020820190508181035f830152611d8581611d4c565b9050919050565b7f4e487b71000000000000000000000000000000000000000000000000000000005f52601260045260245ffd5b5f611dc38261150e565b9150611dce8361150e565b925082611dde57611ddd611d8c565b5b828206905092915050565b7f546f74616c20616d6f756e74206d75737420626520646976697369626c6520625f8201527f79206d617820657865637574696f6e7300000000000000000000000000000000602082015250565b5f611e4360308361175e565b9150611e4e82611de9565b604082019050919050565b5f6020820190508181035f830152611e7081611e37565b9050919050565b5f611e818261150e565b9150611e8c8361150e565b925082611e9c57611e9b611d8c565b5b828204905092915050565b5f606082019050611eba5f8301866116aa565b611ec760208301856116aa565b611ed460408301846115e3565b949350505050565b5f60a082019050611eef5f8301886116aa565b611efc60208301876116aa565b611f0960408301866115e3565b611f1660608301856115e3565b611f2360808301846115e3565b9695505050505050565b7f496e7465726e616c2066756e6374696f6e0000000000000000000000000000005f82015250565b5f611f6160118361175e565b9150611f6c82611f2d565b602082019050919050565b5f6020820190508181035f830152611f8e81611f55565b9050919050565b5f602082019050611fa85f8301846116aa565b92915050565b7f4e6f7420617574686f72697a65640000000000000000000000000000000000005f82015250565b5f611fe2600e8361175e565b9150611fed82611fae565b602082019050919050565b5f6020820190508181035f83015261200f81611fd6565b9050919050565b7f496e73756666696369656e742066756e647300000000000000000000000000005f82015250565b5f61204a60128361175e565b915061205582612016565b602082019050919050565b5f6020820190508181035f8301526120778161203e565b9050919050565b5f81519050919050565b5f81905092915050565b5f61209c8261207e565b6120a68185612088565b93506120b6818560208601611af3565b80840191505092915050565b5f6120cd8284612092565b915081905092915050565b7f5472616e73666572206661696c656400000000000000000000000000000000005f82015250565b5f61210c600f8361175e565b9150612117826120d8565b602082019050919050565b5f6020820190508181035f83015261213981612100565b905091905056fea264697066735822122007a97ac5487db045775669bad02e9b52fc7f67ac707412f5466d468d36b348e464736f6c634300081e0033","linkReferences":{}},"methodIdentifiers":{"_executeSwap(uint256)":"4d4d6514","cancelTWAPOrder(uint256)":"c12d2f55","coverDebt()":"7a90b990","createTWAPOrder(address,address,uint256,uint256)":"24a8d0b1","dex()":"692058c2","executeTWAPOrder(address,uint256)":"1fea8563","nextOrderId()":"2a58b330","orders(uint256)":"a85c38ef","pay(uint256)":"c290d691"},"id":5}