{"abi":[{"type":"constructor","inputs":[{"name":"_twapCallbackContract","type":"address","internalType":"address"},{"name":"_service","type":"address","internalType":"address"},{"name":"_orderId","type":"uint256","internalType":"uint256"},{"name":"_cronInterval","type":"uint256","internalType":"uint256"},{"name":"_maxExecutions","type":"uint256","internalType":"uint256"}],"stateMutability":"payable"},{"type":"receive","stateMutability":"payable"},{"type":"function","name":"coverDebt","inputs":[],"outputs":[],"stateMutability":"nonpayable"},{"type":"function","name":"cronTopic","inputs":[],"outputs":[{"name":"","type":"uint256","internalType":"uint256"}],"stateMutability":"view"},{"type":"function","name":"getOrderStatus","inputs":[],"outputs":[{"name":"_orderId","type":"uint256","internalType":"uint256"},{"name":"_currentExecution","type":"uint256","internalType":"uint256"},{"name":"_maxExecutions","type":"uint256","internalType":"uint256"},{"name":"_orderActive","type":"bool","internalType":"bool"}],"stateMutability":"view"},{"type":"function","name":"pause","inputs":[],"outputs":[],"stateMutability":"nonpayable"},{"type":"function","name":"pay","inputs":[{"name":"amount","type":"uint256","internalType":"uint256"}],"outputs":[],"stateMutability":"nonpayable"},{"type":"function","name":"react","inputs":[{"name":"log","type":"tuple","internalType":"struct IReactive.LogRecord","components":[{"name":"chain_id","type":"uint256","internalType":"uint256"},{"name":"_contract","type":"address","internalType":"address"},{"name":"topic_0","type":"uint256","internalType":"uint256"},{"name":"topic_1","type":"uint256","internalType":"uint256"},{"name":"topic_2","type":"uint256","internalType":"uint256"},{"name":"topic_3","type":"uint256","internalType":"uint256"},{"name":"data","type":"bytes","internalType":"bytes"},{"name":"block_number","type":"uint256","internalType":"uint256"},{"name":"op_code","type":"uint256","internalType":"uint256"},{"name":"block_hash","type":"uint256","internalType":"uint256"},{"name":"tx_hash","type":"uint256","internalType":"uint256"},{"name":"log_index","type":"uint256","internalType":"uint256"}]}],"outputs":[],"stateMutability":"nonpayable"},{"type":"function","name":"resume","inputs":[],"outputs":[],"stateMutability":"nonpayable"},{"type":"event","name":"Callback","inputs":[{"name":"chain_id","type":"uint256","indexed":true,"internalType":"uint256"},{"name":"_contract","type":"address","indexed":true,"internalType":"address"},{"name":"gas_limit","type":"uint64","indexed":true,"internalType":"uint64"},{"name":"payload","type":"bytes","indexed":false,"internalType":"bytes"}],"anonymous":false},{"type":"event","name":"TWAPExecutionTriggered","inputs":[{"name":"orderId","type":"uint256","indexed":true,"internalType":"uint256"},{"name":"executionNumber","type":"uint256","indexed":false,"internalType":"uint256"}],"anonymous":false},{"type":"event","name":"TWAPOrderFinished","inputs":[{"name":"orderId","type":"uint256","indexed":true,"internalType":"uint256"}],"anonymous":false}],"bytecode":{"object":"0x608060405260405161215e38038061215e8339818101604052810190610025919061085b565b62ffffff600260016101000a81548173ffffffffffffffffffffffffffffffffffffffff021916908373ffffffffffffffffffffffffffffffffffffffff16021790555f5f6101000a81548173ffffffffffffffffffffffffffffffffffffffff021916908373ffffffffffffffffffffffffffffffffffffffff1602179055506100b862ffffff61074d60201b60201c565b6100c66107a460201b60201c565b3360035f6101000a81548173ffffffffffffffffffffffffffffffffffffffff021916908373ffffffffffffffffffffffffffffffffffffffff16021790555083600260016101000a81548173ffffffffffffffffffffffffffffffffffffffff021916908373ffffffffffffffffffffffffffffffffffffffff1602179055508460045f6101000a81548173ffffffffffffffffffffffffffffffffffffffff021916908373ffffffffffffffffffffffffffffffffffffffff16021790555082600581905550806007819055505f600881905550600160095f6101000a81548160ff0219169083151502179055505f82036101e9577ff02d6ea5c22a71cffe930a4523fcb4f129be6c804db50e4202fb4e0b07ccb5146006819055506102f8565b6001820361021d577f04463f7c1651e6b9774d7f85c85bb94654e3c46ca79b0c16fb16d4183307b6876006819055506102f7565b60028203610251577fb49937fb8970e19fd46d48f7e3fb00d659deac0347f79cd7cb542f0fc1503c706006819055506102f6565b60038203610285577fe20b31294d84c3661ddc8f423abb9c70310d0cf172aa2714ead78029b325e3f46006819055506102f5565b600482036102b9577fd214e1d84db704ed42d37f538ea9bf71e44ba28bc1cc088b2f5deca654677a566006819055506102f4565b6040517f08c379a00000000000000000000000000000000000000000000000000000000081526004016102eb9061092c565b60405180910390fd5b5b5b5b5b60025f9054906101000a900460ff1661074357600260019054906101000a900473ffffffffffffffffffffffffffffffffffffffff1673ffffffffffffffffffffffffffffffffffffffff16635a6aced046600260019054906101000a900473ffffffffffffffffffffffffffffffffffffffff166006547fa65f96fc951c35ead38878e0f0b7a3c744a6f5ccc1476b313353ce31712313ad807fa65f96fc951c35ead38878e0f0b7a3c744a6f5ccc1476b313353ce31712313ad6040518763ffffffff1660e01b81526004016103d496959493929190610968565b5f604051808303815f87803b1580156103eb575f5ffd5b505af11580156103fd573d5f5f3e3d5ffd5b50505050600260019054906101000a900473ffffffffffffffffffffffffffffffffffffffff1673ffffffffffffffffffffffffffffffffffffffff16635a6aced062aa36a760045f9054906101000a900473ffffffffffffffffffffffffffffffffffffffff167fbf1678f63592cf78697cd879276fdf3025d241a4144d5d7750cb82ace684df007fa65f96fc951c35ead38878e0f0b7a3c744a6f5ccc1476b313353ce31712313ad807fa65f96fc951c35ead38878e0f0b7a3c744a6f5ccc1476b313353ce31712313ad6040518763ffffffff1660e01b81526004016104ea96959493929190610968565b5f604051808303815f87803b158015610501575f5ffd5b505af1158015610513573d5f5f3e3d5ffd5b50505050600260019054906101000a900473ffffffffffffffffffffffffffffffffffffffff1673ffffffffffffffffffffffffffffffffffffffff16635a6aced062aa36a760045f9054906101000a900473ffffffffffffffffffffffffffffffffffffffff167e9dd495421195eba11b580b9afa14d538b352941c8a9626a2a529f3066294e17fa65f96fc951c35ead38878e0f0b7a3c744a6f5ccc1476b313353ce31712313ad807fa65f96fc951c35ead38878e0f0b7a3c744a6f5ccc1476b313353ce31712313ad6040518763ffffffff1660e01b81526004016105ff96959493929190610968565b5f604051808303815f87803b158015610616575f5ffd5b505af1158015610628573d5f5f3e3d5ffd5b50505050600260019054906101000a900473ffffffffffffffffffffffffffffffffffffffff1673ffffffffffffffffffffffffffffffffffffffff16635a6aced062aa36a760045f9054906101000a900473ffffffffffffffffffffffffffffffffffffffff167ff2af3527ff84738fc93c9f0422e506486f8bae69e5a5a9b245b04a54b04924027fa65f96fc951c35ead38878e0f0b7a3c744a6f5ccc1476b313353ce31712313ad807fa65f96fc951c35ead38878e0f0b7a3c744a6f5ccc1476b313353ce31712313ad6040518763ffffffff1660e01b815260040161071596959493929190610968565b5f604051808303815f87803b15801561072c575f5ffd5b505af115801561073e573d5f5f3e3d5ffd5b505050505b50505050506109c7565b6001805f8373ffffffffffffffffffffffffffffffffffffffff1673ffffffffffffffffffffffffffffffffffffffff1681526020019081526020015f205f6101000a81548160ff02191690831515021790555050565b5f62ffffff3b90505f811460025f6101000a81548160ff02191690831515021790555050565b5f5ffd5b5f73ffffffffffffffffffffffffffffffffffffffff82169050919050565b5f6107f7826107ce565b9050919050565b610807816107ed565b8114610811575f5ffd5b50565b5f81519050610822816107fe565b92915050565b5f819050919050565b61083a81610828565b8114610844575f5ffd5b50565b5f8151905061085581610831565b92915050565b5f5f5f5f5f60a08688031215610874576108736107ca565b5b5f61088188828901610814565b955050602061089288828901610814565b94505060406108a388828901610847565b93505060606108b488828901610847565b92505060806108c588828901610847565b9150509295509295909350565b5f82825260208201905092915050565b7f496e76616c69642063726f6e20696e74657276616c00000000000000000000005f82015250565b5f6109166015836108d2565b9150610921826108e2565b602082019050919050565b5f6020820190508181035f8301526109438161090a565b9050919050565b61095381610828565b82525050565b610962816107ed565b82525050565b5f60c08201905061097b5f83018961094a565b6109886020830188610959565b610995604083018761094a565b6109a2606083018661094a565b6109af608083018561094a565b6109bc60a083018461094a565b979650505050505050565b61178a806109d45f395ff3fe608060405260043610610073575f3560e01c80638456cb591161004d5780638456cb59146100d2578063c290d691146100e8578063d81d26ae14610110578063ec68c7241461013d5761007a565b8063046f7da21461007e5780630d152c2c146100945780637a90b990146100bc5761007a565b3661007a57005b5f5ffd5b348015610089575f5ffd5b50610092610167565b005b34801561009f575f5ffd5b506100ba60048036038101906100b59190610f87565b610420565b005b3480156100c7575f5ffd5b506100d0610840565b005b3480156100dd575f5ffd5b506100e6610908565b005b3480156100f3575f5ffd5b5061010e60048036038101906101099190611001565b610bc3565b005b34801561011b575f5ffd5b50610124610c59565b6040516101349493929190611055565b60405180910390f35b348015610148575f5ffd5b50610151610c83565b60405161015e9190611098565b60405180910390f35b60025f9054906101000a900460ff16156101b6576040517f08c379a00000000000000000000000000000000000000000000000000000000081526004016101ad9061110b565b60405180910390fd5b60035f9054906101000a900473ffffffffffffffffffffffffffffffffffffffff1673ffffffffffffffffffffffffffffffffffffffff163373ffffffffffffffffffffffffffffffffffffffff1614610245576040517f08c379a000000000000000000000000000000000000000000000000000000000815260040161023c90611173565b60405180910390fd5b600360149054906101000a900460ff16610294576040517f08c379a000000000000000000000000000000000000000000000000000000000815260040161028b906111db565b60405180910390fd5b5f61029d610c89565b90505f5f90505b8151811461040257600260019054906101000a900473ffffffffffffffffffffffffffffffffffffffff1673ffffffffffffffffffffffffffffffffffffffff16635a6aced08383815181106102fd576102fc6111f9565b5b60200260200101515f015184848151811061031b5761031a6111f9565b5b60200260200101516020015185858151811061033a576103396111f9565b5b602002602001015160400151868681518110610359576103586111f9565b5b602002602001015160600151878781518110610378576103776111f9565b5b602002602001015160800151888881518110610397576103966111f9565b5b602002602001015160a001516040518763ffffffff1660e01b81526004016103c496959493929190611265565b5f604051808303815f87803b1580156103db575f5ffd5b505af11580156103ed573d5f5f3e3d5ffd5b50505050806103fb906112f1565b90506102a4565b505f600360146101000a81548160ff02191690831515021790555050565b60025f9054906101000a900460ff1661046e576040517f08c379a000000000000000000000000000000000000000000000000000000000815260040161046590611382565b60405180910390fd5b6006548160400135036106025760095f9054906101000a900460ff16158061049a575060075460085410155b61083d575f5f6005546040516024016104b49291906113a0565b6040516020818303038152906040527f1fea8563000000000000000000000000000000000000000000000000000000007bffffffffffffffffffffffffffffffffffffffffffffffffffffffff19166020820180517bffffffffffffffffffffffffffffffffffffffffffffffffffffffff838183161783525050505090506005547f4af6f1bc79c20bbd84822bbe209b175e626d624aa4377c26a0f2fabbe57f0423600160085461056691906113c7565b6040516105739190611098565b60405180910390a2620f424067ffffffffffffffff1660045f9054906101000a900473ffffffffffffffffffffffffffffffffffffffff1673ffffffffffffffffffffffffffffffffffffffff1662aa36a77f8dd725fa9d6cd150017ab9e60318d40616439424e2fade9c1c58854950917dfc846040516105f4919061146a565b60405180910390a45061083c565b60045f9054906101000a900473ffffffffffffffffffffffffffffffffffffffff1673ffffffffffffffffffffffffffffffffffffffff1681602001602081019061064d91906114b4565b73ffffffffffffffffffffffffffffffffffffffff1614801561069357507fbf1678f63592cf78697cd879276fdf3025d241a4144d5d7750cb82ace684df008160400135145b1561071b575f8160600135905060055481036107155760085f8154809291906106bb906112f1565b919050555060075460085410610714575f60095f6101000a81548160ff0219169083151502179055506005547f606504c0f1bf507bb65cce4b4cec15cefc2d2409c7ecf490861c97ab8460684a60405160405180910390a25b5b5061083b565b60045f9054906101000a900473ffffffffffffffffffffffffffffffffffffffff1673ffffffffffffffffffffffffffffffffffffffff1681602001602081019061076691906114b4565b73ffffffffffffffffffffffffffffffffffffffff161480156107d957507e9dd495421195eba11b580b9afa14d538b352941c8a9626a2a529f3066294e1816040013514806107d857507ff2af3527ff84738fc93c9f0422e506486f8bae69e5a5a9b245b04a54b04924028160400135145b5b1561083a575f816060013590506005548103610838575f60095f6101000a81548160ff0219169083151502179055506005547f606504c0f1bf507bb65cce4b4cec15cefc2d2409c7ecf490861c97ab8460684a60405160405180910390a25b505b5b5b5b50565b5f5f5f9054906101000a900473ffffffffffffffffffffffffffffffffffffffff1673ffffffffffffffffffffffffffffffffffffffff16639b6c56ec306040518263ffffffff1660e01b815260040161089a91906114df565b602060405180830381865afa1580156108b5573d5f5f3e3d5ffd5b505050506040513d601f19601f820116820180604052508101906108d9919061150c565b90506109055f5f9054906101000a900473ffffffffffffffffffffffffffffffffffffffff1682610dcf565b50565b60025f9054906101000a900460ff1615610957576040517f08c379a000000000000000000000000000000000000000000000000000000000815260040161094e9061110b565b60405180910390fd5b60035f9054906101000a900473ffffffffffffffffffffffffffffffffffffffff1673ffffffffffffffffffffffffffffffffffffffff163373ffffffffffffffffffffffffffffffffffffffff16146109e6576040517f08c379a00000000000000000000000000000000000000000000000000000000081526004016109dd90611173565b60405180910390fd5b600360149054906101000a900460ff1615610a36576040517f08c379a0000000000000000000000000000000000000000000000000000000008152600401610a2d90611581565b60405180910390fd5b5f610a3f610c89565b90505f5f90505b81518114610ba457600260019054906101000a900473ffffffffffffffffffffffffffffffffffffffff1673ffffffffffffffffffffffffffffffffffffffff16632f807336838381518110610a9f57610a9e6111f9565b5b60200260200101515f0151848481518110610abd57610abc6111f9565b5b602002602001015160200151858581518110610adc57610adb6111f9565b5b602002602001015160400151868681518110610afb57610afa6111f9565b5b602002602001015160600151878781518110610b1a57610b196111f9565b5b602002602001015160800151888881518110610b3957610b386111f9565b5b602002602001015160a001516040518763ffffffff1660e01b8152600401610b6696959493929190611265565b5f604051808303815f87803b158015610b7d575f5ffd5b505af1158015610b8f573d5f5f3e3d5ffd5b5050505080610b9d906112f1565b9050610a46565b506001600360146101000a81548160ff02191690831515021790555050565b60015f3373ffffffffffffffffffffffffffffffffffffffff1673ffffffffffffffffffffffffffffffffffffffff1681526020019081526020015f205f9054906101000a900460ff16610c4c576040517f08c379a0000000000000000000000000000000000000000000000000000000008152600401610c43906115e9565b60405180910390fd5b610c563382610dcf565b50565b5f5f5f5f60055460085460075460095f9054906101000a900460ff16935093509350935090919293565b60065481565b60605f600167ffffffffffffffff811115610ca757610ca6611607565b5b604051908082528060200260200182016040528015610ce057816020015b610ccd610f16565b815260200190600190039081610cc55790505b5090506040518060c00160405280468152602001600260019054906101000a900473ffffffffffffffffffffffffffffffffffffffff1673ffffffffffffffffffffffffffffffffffffffff16815260200160065481526020017fa65f96fc951c35ead38878e0f0b7a3c744a6f5ccc1476b313353ce31712313ad81526020017fa65f96fc951c35ead38878e0f0b7a3c744a6f5ccc1476b313353ce31712313ad81526020017fa65f96fc951c35ead38878e0f0b7a3c744a6f5ccc1476b313353ce31712313ad815250815f81518110610dbd57610dbc6111f9565b5b60200260200101819052508091505090565b80471015610e12576040517f08c379a0000000000000000000000000000000000000000000000000000000008152600401610e099061167e565b60405180910390fd5b5f811115610f12575f8273ffffffffffffffffffffffffffffffffffffffff16825f67ffffffffffffffff811115610e4d57610e4c611607565b5b6040519080825280601f01601f191660200182016040528015610e7f5781602001600182028036833780820191505090505b50604051610e8d91906116d6565b5f6040518083038185875af1925050503d805f8114610ec7576040519150601f19603f3d011682016040523d82523d5f602084013e610ecc565b606091505b5050905080610f10576040517f08c379a0000000000000000000000000000000000000000000000000000000008152600401610f0790611736565b60405180910390fd5b505b5050565b6040518060c001604052805f81526020015f73ffffffffffffffffffffffffffffffffffffffff1681526020015f81526020015f81526020015f81526020015f81525090565b5f5ffd5b5f5ffd5b5f5ffd5b5f6101808284031215610f7e57610f7d610f64565b5b81905092915050565b5f60208284031215610f9c57610f9b610f5c565b5b5f82013567ffffffffffffffff811115610fb957610fb8610f60565b5b610fc584828501610f68565b91505092915050565b5f819050919050565b610fe081610fce565b8114610fea575f5ffd5b50565b5f81359050610ffb81610fd7565b92915050565b5f6020828403121561101657611015610f5c565b5b5f61102384828501610fed565b91505092915050565b61103581610fce565b82525050565b5f8115159050919050565b61104f8161103b565b82525050565b5f6080820190506110685f83018761102c565b611075602083018661102c565b611082604083018561102c565b61108f6060830184611046565b95945050505050565b5f6020820190506110ab5f83018461102c565b92915050565b5f82825260208201905092915050565b7f5265616374697665204e6574776f726b206f6e6c7900000000000000000000005f82015250565b5f6110f56015836110b1565b9150611100826110c1565b602082019050919050565b5f6020820190508181035f830152611122816110e9565b9050919050565b7f556e617574686f72697a656400000000000000000000000000000000000000005f82015250565b5f61115d600c836110b1565b915061116882611129565b602082019050919050565b5f6020820190508181035f83015261118a81611151565b9050919050565b7f4e6f7420706175736564000000000000000000000000000000000000000000005f82015250565b5f6111c5600a836110b1565b91506111d082611191565b602082019050919050565b5f6020820190508181035f8301526111f2816111b9565b9050919050565b7f4e487b71000000000000000000000000000000000000000000000000000000005f52603260045260245ffd5b5f73ffffffffffffffffffffffffffffffffffffffff82169050919050565b5f61124f82611226565b9050919050565b61125f81611245565b82525050565b5f60c0820190506112785f83018961102c565b6112856020830188611256565b611292604083018761102c565b61129f606083018661102c565b6112ac608083018561102c565b6112b960a083018461102c565b979650505050505050565b7f4e487b71000000000000000000000000000000000000000000000000000000005f52601160045260245ffd5b5f6112fb82610fce565b91507fffffffffffffffffffffffffffffffffffffffffffffffffffffffffffffffff820361132d5761132c6112c4565b5b600182019050919050565b7f564d206f6e6c79000000000000000000000000000000000000000000000000005f82015250565b5f61136c6007836110b1565b915061137782611338565b602082019050919050565b5f6020820190508181035f83015261139981611360565b9050919050565b5f6040820190506113b35f830185611256565b6113c0602083018461102c565b9392505050565b5f6113d182610fce565b91506113dc83610fce565b92508282019050808211156113f4576113f36112c4565b5b92915050565b5f81519050919050565b5f82825260208201905092915050565b8281835e5f83830152505050565b5f601f19601f8301169050919050565b5f61143c826113fa565b6114468185611404565b9350611456818560208601611414565b61145f81611422565b840191505092915050565b5f6020820190508181035f8301526114828184611432565b905092915050565b61149381611245565b811461149d575f5ffd5b50565b5f813590506114ae8161148a565b92915050565b5f602082840312156114c9576114c8610f5c565b5b5f6114d6848285016114a0565b91505092915050565b5f6020820190506114f25f830184611256565b92915050565b5f8151905061150681610fd7565b92915050565b5f6020828403121561152157611520610f5c565b5b5f61152e848285016114f8565b91505092915050565b7f416c7265616479207061757365640000000000000000000000000000000000005f82015250565b5f61156b600e836110b1565b915061157682611537565b602082019050919050565b5f6020820190508181035f8301526115988161155f565b9050919050565b7f417574686f72697a65642073656e646572206f6e6c79000000000000000000005f82015250565b5f6115d36016836110b1565b91506115de8261159f565b602082019050919050565b5f6020820190508181035f830152611600816115c7565b9050919050565b7f4e487b71000000000000000000000000000000000000000000000000000000005f52604160045260245ffd5b7f496e73756666696369656e742066756e647300000000000000000000000000005f82015250565b5f6116686012836110b1565b915061167382611634565b602082019050919050565b5f6020820190508181035f8301526116958161165c565b9050919050565b5f81905092915050565b5f6116b0826113fa565b6116ba818561169c565b93506116ca818560208601611414565b80840191505092915050565b5f6116e182846116a6565b915081905092915050565b7f5472616e73666572206661696c656400000000000000000000000000000000005f82015250565b5f611720600f836110b1565b915061172b826116ec565b602082019050919050565b5f6020820190508181035f83015261174d81611714565b905091905056fea26469706673582212207517700bbc751fc2cc9abe5f002ecbff34913259deb7c1340ec784cb8c0a746864736f6c634300081e0033","linkReferences":{}},"methodIdentifiers":{"coverDebt()":"7a90b990","cronTopic()":"ec68c724","getOrderStatus()":"d81d26ae","pause()":"8456cb59","pay(uint256)":"c290d691","react((uint256,address,uint256,uint256,uint256,uint256,bytes,uint256,uint256,uint256,uint256,uint256))":"0d152c2c","resume()":"046f7da2"},"id":8}