{"abi":[{"type":"function","name":"addLiquidity","inputs":[{"name":"token","type":"address","internalType":"address"},{"name":"amount","type":"uint256","internalType":"uint256"}],"outputs":[],"stateMutability":"nonpayable"},{"type":"function","name":"exchangeRates","inputs":[{"name":"","type":"address","internalType":"address"},{"name":"","type":"address","internalType":"address"}],"outputs":[{"name":"","type":"uint256","internalType":"uint256"}],"stateMutability":"view"},{"type":"function","name":"getQuote","inputs":[{"name":"tokenIn","type":"address","internalType":"address"},{"name":"tokenOut","type":"address","internalType":"address"},{"name":"amountIn","type":"uint256","internalType":"uint256"}],"outputs":[{"name":"amountOut","type":"uint256","internalType":"uint256"}],"stateMutability":"view"},{"type":"function","name":"liquidity","inputs":[{"name":"","type":"address","internalType":"address"}],"outputs":[{"name":"","type":"uint256","internalType":"uint256"}],"stateMutability":"view"},{"type":"function","name":"setExchangeRate","inputs":[{"name":"tokenA","type":"address","internalType":"address"},{"name":"tokenB","type":"address","internalType":"address"},{"name":"rate","type":"uint256","internalType":"uint256"}],"outputs":[],"stateMutability":"nonpayable"},{"type":"function","name":"swapTokens","inputs":[{"name":"tokenIn","type":"address","internalType":"address"},{"name":"tokenOut","type":"address","internalType":"address"},{"name":"amountIn","type":"uint256","internalType":"uint256"}],"outputs":[{"name":"amountOut","type":"uint256","internalType":"uint256"}],"stateMutability":"nonpayable"},{"type":"event","name":"TokenSwapped","inputs":[{"name":"user","type":"address","indexed":true,"internalType":"address"},{"name":"tokenIn","type":"address","indexed":true,"internalType":"address"},{"name":"tokenOut","type":"address","indexed":true,"internalType":"address"},{"name":"amountIn","type":"uint256","indexed":false,"internalType":"uint256"},{"name":"amountOut","type":"uint256","indexed":false,"internalType":"uint256"}],"anonymous":false}],"bytecode":{"object":"0x6080604052348015600e575f5ffd5b50610dff8061001c5f395ff3fe608060405234801561000f575f5ffd5b5060043610610060575f3560e01c8063503fa44f146100645780635668870014610094578063782aaeea146100b0578063b8c876b1146100cc578063c515ee23146100fc578063ec6cc0cc1461012c575b5f5ffd5b61007e6004803603810190610079919061090c565b61015c565b60405161008b9190610962565b60405180910390f35b6100ae60048036038101906100a991906109a5565b61017b565b005b6100ca60048036038101906100c591906109e3565b610292565b005b6100e660048036038101906100e19190610a33565b610313565b6040516100f39190610962565b60405180910390f35b610116600480360381019061011191906109e3565b610328565b6040516101239190610962565b60405180910390f35b610146600480360381019061014191906109e3565b61047b565b6040516101539190610962565b60405180910390f35b5f602052815f5260405f20602052805f5260405f205f91509150505481565b5f81116101bd576040517f08c379a00000000000000000000000000000000000000000000000000000000081526004016101b490610ab8565b60405180910390fd5b8173ffffffffffffffffffffffffffffffffffffffff166323b872dd3330846040518463ffffffff1660e01b81526004016101fa93929190610ae5565b6020604051808303815f875af1158015610216573d5f5f3e3d5ffd5b505050506040513d601f19601f8201168201806040525081019061023a9190610b4f565b508060015f8473ffffffffffffffffffffffffffffffffffffffff1673ffffffffffffffffffffffffffffffffffffffff1681526020019081526020015f205f8282546102879190610ba7565b925050819055505050565b805f5f8573ffffffffffffffffffffffffffffffffffffffff1673ffffffffffffffffffffffffffffffffffffffff1681526020019081526020015f205f8473ffffffffffffffffffffffffffffffffffffffff1673ffffffffffffffffffffffffffffffffffffffff1681526020019081526020015f2081905550505050565b6001602052805f5260405f205f915090505481565b5f5f5f5f8673ffffffffffffffffffffffffffffffffffffffff1673ffffffffffffffffffffffffffffffffffffffff1681526020019081526020015f205f8573ffffffffffffffffffffffffffffffffffffffff1673ffffffffffffffffffffffffffffffffffffffff1681526020019081526020015f2054116103e2576040517f08c379a00000000000000000000000000000000000000000000000000000000081526004016103d990610c24565b60405180910390fd5b6127105f5f8673ffffffffffffffffffffffffffffffffffffffff1673ffffffffffffffffffffffffffffffffffffffff1681526020019081526020015f205f8573ffffffffffffffffffffffffffffffffffffffff1673ffffffffffffffffffffffffffffffffffffffff1681526020019081526020015f2054836104689190610c42565b6104729190610cb0565b90509392505050565b5f5f82116104be576040517f08c379a00000000000000000000000000000000000000000000000000000000081526004016104b590610ab8565b60405180910390fd5b5f5f5f8673ffffffffffffffffffffffffffffffffffffffff1673ffffffffffffffffffffffffffffffffffffffff1681526020019081526020015f205f8573ffffffffffffffffffffffffffffffffffffffff1673ffffffffffffffffffffffffffffffffffffffff1681526020019081526020015f205411610577576040517f08c379a000000000000000000000000000000000000000000000000000000000815260040161056e90610c24565b60405180910390fd5b6127105f5f8673ffffffffffffffffffffffffffffffffffffffff1673ffffffffffffffffffffffffffffffffffffffff1681526020019081526020015f205f8573ffffffffffffffffffffffffffffffffffffffff1673ffffffffffffffffffffffffffffffffffffffff1681526020019081526020015f2054836105fd9190610c42565b6106079190610cb0565b90508060015f8573ffffffffffffffffffffffffffffffffffffffff1673ffffffffffffffffffffffffffffffffffffffff1681526020019081526020015f20541015610689576040517f08c379a000000000000000000000000000000000000000000000000000000000815260040161068090610d2a565b60405180910390fd5b8373ffffffffffffffffffffffffffffffffffffffff166323b872dd3330856040518463ffffffff1660e01b81526004016106c693929190610ae5565b6020604051808303815f875af11580156106e2573d5f5f3e3d5ffd5b505050506040513d601f19601f820116820180604052508101906107069190610b4f565b508273ffffffffffffffffffffffffffffffffffffffff1663a9059cbb33836040518363ffffffff1660e01b8152600401610742929190610d48565b6020604051808303815f875af115801561075e573d5f5f3e3d5ffd5b505050506040513d601f19601f820116820180604052508101906107829190610b4f565b508160015f8673ffffffffffffffffffffffffffffffffffffffff1673ffffffffffffffffffffffffffffffffffffffff1681526020019081526020015f205f8282546107cf9190610ba7565b925050819055508060015f8573ffffffffffffffffffffffffffffffffffffffff1673ffffffffffffffffffffffffffffffffffffffff1681526020019081526020015f205f8282546108229190610d6f565b925050819055508273ffffffffffffffffffffffffffffffffffffffff168473ffffffffffffffffffffffffffffffffffffffff163373ffffffffffffffffffffffffffffffffffffffff167fd36cc53ba71bc76a3db3364981f5296dd4ca5eba0e8c89874f2170515bd20d24858560405161089f929190610da2565b60405180910390a49392505050565b5f5ffd5b5f73ffffffffffffffffffffffffffffffffffffffff82169050919050565b5f6108db826108b2565b9050919050565b6108eb816108d1565b81146108f5575f5ffd5b50565b5f81359050610906816108e2565b92915050565b5f5f60408385031215610922576109216108ae565b5b5f61092f858286016108f8565b9250506020610940858286016108f8565b9150509250929050565b5f819050919050565b61095c8161094a565b82525050565b5f6020820190506109755f830184610953565b92915050565b6109848161094a565b811461098e575f5ffd5b50565b5f8135905061099f8161097b565b92915050565b5f5f604083850312156109bb576109ba6108ae565b5b5f6109c8858286016108f8565b92505060206109d985828601610991565b9150509250929050565b5f5f5f606084860312156109fa576109f96108ae565b5b5f610a07868287016108f8565b9350506020610a18868287016108f8565b9250506040610a2986828701610991565b9150509250925092565b5f60208284031215610a4857610a476108ae565b5b5f610a55848285016108f8565b91505092915050565b5f82825260208201905092915050565b7f416d6f756e74206d7573742062652067726561746572207468616e20300000005f82015250565b5f610aa2601d83610a5e565b9150610aad82610a6e565b602082019050919050565b5f6020820190508181035f830152610acf81610a96565b9050919050565b610adf816108d1565b82525050565b5f606082019050610af85f830186610ad6565b610b056020830185610ad6565b610b126040830184610953565b949350505050565b5f8115159050919050565b610b2e81610b1a565b8114610b38575f5ffd5b50565b5f81519050610b4981610b25565b92915050565b5f60208284031215610b6457610b636108ae565b5b5f610b7184828501610b3b565b91505092915050565b7f4e487b71000000000000000000000000000000000000000000000000000000005f52601160045260245ffd5b5f610bb18261094a565b9150610bbc8361094a565b9250828201905080821115610bd457610bd3610b7a565b5b92915050565b7f45786368616e67652072617465206e6f742073657400000000000000000000005f82015250565b5f610c0e601583610a5e565b9150610c1982610bda565b602082019050919050565b5f6020820190508181035f830152610c3b81610c02565b9050919050565b5f610c4c8261094a565b9150610c578361094a565b9250828202610c658161094a565b91508282048414831517610c7c57610c7b610b7a565b5b5092915050565b7f4e487b71000000000000000000000000000000000000000000000000000000005f52601260045260245ffd5b5f610cba8261094a565b9150610cc58361094a565b925082610cd557610cd4610c83565b5b828204905092915050565b7f496e73756666696369656e74206c6971756964697479000000000000000000005f82015250565b5f610d14601683610a5e565b9150610d1f82610ce0565b602082019050919050565b5f6020820190508181035f830152610d4181610d08565b9050919050565b5f604082019050610d5b5f830185610ad6565b610d686020830184610953565b9392505050565b5f610d798261094a565b9150610d848361094a565b9250828203905081811115610d9c57610d9b610b7a565b5b92915050565b5f604082019050610db55f830185610953565b610dc26020830184610953565b939250505056fea26469706673582212206c1808e9677374fe10e5eb81a9b2997a3c55fb55ec90a671ee117577da7494f864736f6c634300081e0033","linkReferences":{}},"methodIdentifiers":{"addLiquidity(address,uint256)":"56688700","exchangeRates(address,address)":"503fa44f","getQuote(address,address,uint256)":"c515ee23","liquidity(address)":"b8c876b1","setExchangeRate(address,address,uint256)":"782aaeea","swapTokens(address,address,uint256)":"ec6cc0cc"},"id":1}